{
  "_format": "hh-sol-artifact-1",
  "contractName": "OceanGuard",
  "sourceName": "contracts/OceanGuard.sol",
  "abi": [
    {
      "inputs": [],
      "stateMutability": "nonpayable",
      "type": "constructor"
    },
    {
      "anonymous": false,
      "inputs": [
        {
          "indexed": true,
          "internalType": "uint256",
          "name": "actionId",
          "type": "uint256"
        },
        {
          "indexed": true,
          "internalType": "address",
          "name": "endorser",
          "type": "address"
        }
      ],
      "name": "ActionEndorsed",
      "type": "event"
    },
    {
      "anonymous": false,
      "inputs": [
        {
          "indexed": true,
          "internalType": "uint256",
          "name": "actionId",
          "type": "uint256"
        },
        {
          "indexed": true,
          "internalType": "address",
          "name": "owner",
          "type": "address"
        },
        {
          "indexed": false,
          "internalType": "string",
          "name": "actionHash",
          "type": "string"
        },
        {
          "indexed": false,
          "internalType": "string",
          "name": "metadataURI",
          "type": "string"
        },
        {
          "indexed": false,
          "internalType": "uint64",
          "name": "timestamp",
          "type": "uint64"
        },
        {
          "indexed": false,
          "internalType": "bool",
          "name": "visibility",
          "type": "bool"
        }
      ],
      "name": "ActionRecorded",
      "type": "event"
    },
    {
      "anonymous": false,
      "inputs": [
        {
          "indexed": true,
          "internalType": "address",
          "name": "user",
          "type": "address"
        },
        {
          "indexed": true,
          "internalType": "uint256",
          "name": "badgeId",
          "type": "uint256"
        }
      ],
      "name": "BadgeClaimed",
      "type": "event"
    },
    {
      "inputs": [
        {
          "internalType": "uint256",
          "name": "badgeId",
          "type": "uint256"
        }
      ],
      "name": "claimBadge",
      "outputs": [],
      "stateMutability": "nonpayable",
      "type": "function"
    },
    {
      "inputs": [
        {
          "internalType": "uint256",
          "name": "actionId",
          "type": "uint256"
        }
      ],
      "name": "endorseAction",
      "outputs": [],
      "stateMutability": "nonpayable",
      "type": "function"
    },
    {
      "inputs": [
        {
          "internalType": "uint256",
          "name": "actionId",
          "type": "uint256"
        }
      ],
      "name": "getAction",
      "outputs": [
        {
          "internalType": "address",
          "name": "owner",
          "type": "address"
        },
        {
          "internalType": "string",
          "name": "actionHash",
          "type": "string"
        },
        {
          "internalType": "string",
          "name": "metadataURI",
          "type": "string"
        },
        {
          "internalType": "uint64",
          "name": "timestamp",
          "type": "uint64"
        },
        {
          "internalType": "bool",
          "name": "visibility",
          "type": "bool"
        },
        {
          "internalType": "euint32",
          "name": "endorsementCount",
          "type": "bytes32"
        }
      ],
      "stateMutability": "view",
      "type": "function"
    },
    {
      "inputs": [
        {
          "internalType": "address",
          "name": "user",
          "type": "address"
        }
      ],
      "name": "getActionsByUser",
      "outputs": [
        {
          "internalType": "uint256[]",
          "name": "",
          "type": "uint256[]"
        }
      ],
      "stateMutability": "view",
      "type": "function"
    },
    {
      "inputs": [
        {
          "internalType": "address",
          "name": "user",
          "type": "address"
        }
      ],
      "name": "getReputation",
      "outputs": [
        {
          "internalType": "euint32",
          "name": "",
          "type": "bytes32"
        }
      ],
      "stateMutability": "view",
      "type": "function"
    },
    {
      "inputs": [],
      "name": "getTotalActions",
      "outputs": [
        {
          "internalType": "uint256",
          "name": "",
          "type": "uint256"
        }
      ],
      "stateMutability": "view",
      "type": "function"
    },
    {
      "inputs": [
        {
          "internalType": "address",
          "name": "user",
          "type": "address"
        },
        {
          "internalType": "uint256",
          "name": "badgeId",
          "type": "uint256"
        }
      ],
      "name": "hasBadge",
      "outputs": [
        {
          "internalType": "bool",
          "name": "",
          "type": "bool"
        }
      ],
      "stateMutability": "view",
      "type": "function"
    },
    {
      "inputs": [
        {
          "internalType": "address",
          "name": "user",
          "type": "address"
        },
        {
          "internalType": "uint256",
          "name": "badgeId",
          "type": "uint256"
        }
      ],
      "name": "isBadgeClaimable",
      "outputs": [
        {
          "internalType": "bool",
          "name": "",
          "type": "bool"
        }
      ],
      "stateMutability": "view",
      "type": "function"
    },
    {
      "inputs": [],
      "name": "protocolId",
      "outputs": [
        {
          "internalType": "uint256",
          "name": "",
          "type": "uint256"
        }
      ],
      "stateMutability": "pure",
      "type": "function"
    },
    {
      "inputs": [
        {
          "internalType": "string",
          "name": "actionHash",
          "type": "string"
        },
        {
          "internalType": "string",
          "name": "metadataURI",
          "type": "string"
        },
        {
          "internalType": "bool",
          "name": "visibility",
          "type": "bool"
        }
      ],
      "name": "recordAction",
      "outputs": [
        {
          "internalType": "uint256",
          "name": "actionId",
          "type": "uint256"
        }
      ],
      "stateMutability": "nonpayable",
      "type": "function"
    }
  ],
  "bytecode": "0x608060405234801561000f575f5ffd5b5061018a6100ae604080516080810182525f808252602082018190529181018290526060810191909152506040805160808101825273687820221192c5b662b25367f70076a37bc79b6c815273848b0066793bcc60346da1f49049357399b8d595602082015273a02cda4ca3a71d7c46997716f4283aa851c2881291810191909152731364cbbf2cdf5032c47d8226a6f6fbd2afcdacac606082015290565b80517f9e7b61f58c47dc699ac88507c4f5bb9f121c03808c5676a8078fe583e464970080546001600160a01b03199081166001600160a01b039384161790915560208301517f9e7b61f58c47dc699ac88507c4f5bb9f121c03808c5676a8078fe583e46497018054831691841691909117905560408301517f9e7b61f58c47dc699ac88507c4f5bb9f121c03808c5676a8078fe583e46497028054831691841691909117905560608301517f9e7b61f58c47dc699ac88507c4f5bb9f121c03808c5676a8078fe583e46497038054909216921691909117905550565b60015f556110048061019b5f395ff3fe608060405234801561000f575f5ffd5b50600436106100b9575f3560e01c80639c89a0e211610072578063b6e7687311610058578063b6e7687314610189578063da1f12ab146101ae578063fcc03293146101b6575f5ffd5b80639c89a0e214610141578063aa68d79f14610169575f5ffd5b80633d617c59116100a25780633d617c59146100f85780634c6a70ce1461010b578063728d09851461012e575f5ffd5b806323415135146100bd5780632bd4657b146100d2575b5f5ffd5b6100d06100cb366004610ba1565b6101be565b005b6100e56100e0366004610bfd565b610268565b6040519081526020015b60405180910390f35b6100d0610106366004610ba1565b610400565b61011e610119366004610c9f565b61062b565b60405190151581526020016100ef565b61011e61013c366004610c9f565b610658565b6100e561014f366004610cc7565b6001600160a01b03165f9081526004602052604090205490565b61017c610177366004610cc7565b6106bb565b6040516100ef9190610ce0565b61019c610197366004610ba1565b610724565b6040516100ef96959493929190610d50565b6127116100e5565b6100e56108f7565b6101c83382610658565b6102195760405162461bcd60e51b815260206004820152601360248201527f4261646765206e6f7420636c61696d61626c650000000000000000000000000060448201526064015b60405180910390fd5b335f818152600560209081526040808320858452909152808220805460ff19166001179055518392917fbdaec09f93a9e010d98b043dd79efaaa052a0eed6b10c9ffe87c8f7e256da56f91a350565b5f8054818061027683610dc0565b909155505f81815260016020819052604090912080547fffffffffffffffffffffffff0000000000000000000000000000000000000000163317815591925081016102c2878983610e70565b50600281016102d2858783610e70565b50600381018054841515680100000000000000000268ffffffffffffffffff1990911667ffffffffffffffff42161717905561030d5f610913565b6004820181905561031d90610925565b5061032c816004015433610934565b50335f9081526004602052604090205461034f9061034a6001610913565b610946565b335f90815260046020526040902081905561036990610925565b50335f8181526004602052604090205461038291610934565b50335f81815260036020818152604080842080546001810182559085529190932001859055830154905184917f269c355de6495d943925020d3c3037619fe026b78590358e6772f6ab9d6f6f35916103ee918c918c918c918c9167ffffffffffffffff16908c90610f52565b60405180910390a35095945050505050565b5f81815260016020526040902080546001600160a01b03166104575760405162461bcd60e51b815260206004820152601060248201526f1058dd1a5bdb881b9bdd08199bdd5b9960821b6044820152606401610210565b8054336001600160a01b03909116036104b25760405162461bcd60e51b815260206004820152601960248201527f43616e6e6f7420656e646f727365206f776e20616374696f6e000000000000006044820152606401610210565b5f82815260026020908152604080832033845290915290205460ff161561051b5760405162461bcd60e51b815260206004820152601060248201527f416c726561647920656e646f72736564000000000000000000000000000000006044820152606401610210565b5f8281526002602090815260408083203384529091529020805460ff1916600190811790915560048201546105539161034a90610913565b6004820181905561056390610925565b506004810154815461057e91906001600160a01b0316610934565b5080546001600160a01b03165f908152600460205260409020546105a69061034a6001610913565b81546001600160a01b039081165f90815260046020526040808220939093558354909116815220546105d790610925565b5080546001600160a01b03165f818152600460205260409020546105fa91610934565b50604051339083907ffbac557ba8ac5ae697b90ff5e8cc8b9bd8d30e7f8d7cf7d38dc469a508e3332c905f90a35050565b6001600160a01b0382165f90815260056020908152604080832084845290915290205460ff165b92915050565b5f816001036106b3576001600160a01b0383165f908152600360205260409020546001118015906106ac57506001600160a01b0383165f90815260056020908152604080832085845290915290205460ff16155b9050610652565b505f92915050565b6001600160a01b0381165f9081526003602090815260409182902080548351818402810184019094528084526060939283018282801561071857602002820191905f5260205f20905b815481526020019060010190808311610704575b50505050509050919050565b5f81815260016020526040812080546060918291849182918291906001600160a01b03166107875760405162461bcd60e51b815260206004820152601060248201526f1058dd1a5bdb881b9bdd08199bdd5b9960821b6044820152606401610210565b8054600382015460048301546001840180546001600160a01b03909416939092600286019267ffffffffffffffff8216926801000000000000000090920460ff169185906107d490610dec565b80601f016020809104026020016040519081016040528092919081815260200182805461080090610dec565b801561084b5780601f106108225761010080835404028352916020019161084b565b820191905f5260205f20905b81548152906001019060200180831161082e57829003601f168201915b5050505050945083805461085e90610dec565b80601f016020809104026020016040519081016040528092919081815260200182805461088a90610dec565b80156108d55780601f106108ac576101008083540402835291602001916108d5565b820191905f5260205f20905b8154815290600101906020018083116108b857829003601f168201915b505050505093509650965096509650965096505091939550919395565b905090565b5f5f545f0361090557505f90565b60015f546108f29190610f9d565b5f6106528263ffffffff16600461097b565b5f6109308230610a38565b5090565b5f61093f8383610a38565b5090919050565b5f82610958576109555f610913565b92505b81610969576109665f610913565b91505b61097483835f610ac1565b9392505050565b7f9e7b61f58c47dc699ac88507c4f5bb9f121c03808c5676a8078fe583e464970154604051639cd07acb60e01b81525f917f9e7b61f58c47dc699ac88507c4f5bb9f121c03808c5676a8078fe583e4649700916001600160a01b0390911690639cd07acb906109f09087908790600401610fb0565b6020604051808303815f875af1158015610a0c573d5f5f3e3d5ffd5b505050506040513d601f19601f82011682018060405250810190610a309190610fe0565b949350505050565b5f7f9e7b61f58c47dc699ac88507c4f5bb9f121c03808c5676a8078fe583e46497008054604051635ca4b5b160e11b8152600481018690526001600160a01b03858116602483015292935091169063b9496b62906044015f604051808303815f87803b158015610aa6575f5ffd5b505af1158015610ab8573d5f5f3e3d5ffd5b50505050505050565b5f5f8215610ad45750600160f81b610ad7565b505f5b5f7f9e7b61f58c47dc699ac88507c4f5bb9f121c03808c5676a8078fe583e4649700600181015460405163022f65e760e31b815260048101899052602481018890527fff00000000000000000000000000000000000000000000000000000000000000851660448201529192506001600160a01b03169063117b2f38906064016020604051808303815f875af1158015610b73573d5f5f3e3d5ffd5b505050506040513d601f19601f82011682018060405250810190610b979190610fe0565b9695505050505050565b5f60208284031215610bb1575f5ffd5b5035919050565b5f5f83601f840112610bc8575f5ffd5b50813567ffffffffffffffff811115610bdf575f5ffd5b602083019150836020828501011115610bf6575f5ffd5b9250929050565b5f5f5f5f5f60608688031215610c11575f5ffd5b853567ffffffffffffffff811115610c27575f5ffd5b610c3388828901610bb8565b909650945050602086013567ffffffffffffffff811115610c52575f5ffd5b610c5e88828901610bb8565b90945092505060408601358015158114610c76575f5ffd5b809150509295509295909350565b80356001600160a01b0381168114610c9a575f5ffd5b919050565b5f5f60408385031215610cb0575f5ffd5b610cb983610c84565b946020939093013593505050565b5f60208284031215610cd7575f5ffd5b61097482610c84565b602080825282518282018190525f918401906040840190835b81811015610d17578351835260209384019390920191600101610cf9565b509095945050505050565b5f81518084528060208401602086015e5f602082860101526020601f19601f83011685010191505092915050565b6001600160a01b038716815260c060208201525f610d7160c0830188610d22565b8281036040840152610d838188610d22565b67ffffffffffffffff9690961660608401525050911515608083015260a0909101529392505050565b634e487b7160e01b5f52601160045260245ffd5b5f60018201610dd157610dd1610dac565b5060010190565b634e487b7160e01b5f52604160045260245ffd5b600181811c90821680610e0057607f821691505b602082108103610e1e57634e487b7160e01b5f52602260045260245ffd5b50919050565b601f821115610e6b57805f5260205f20601f840160051c81016020851015610e495750805b601f840160051c820191505b81811015610e68575f8155600101610e55565b50505b505050565b67ffffffffffffffff831115610e8857610e88610dd8565b610e9c83610e968354610dec565b83610e24565b5f601f841160018114610ecd575f8515610eb65750838201355b5f19600387901b1c1916600186901b178355610e68565b5f83815260208120601f198716915b82811015610efc5786850135825560209485019460019092019101610edc565b5086821015610f18575f1960f88860031b161c19848701351681555b505060018560011b0183555050505050565b81835281816020850137505f828201602090810191909152601f909101601f19169091010190565b608081525f610f6560808301888a610f2a565b8281036020840152610f78818789610f2a565b67ffffffffffffffff9590951660408401525050901515606090910152949350505050565b8181038181111561065257610652610dac565b8281526040810160548310610fd357634e487b7160e01b5f52602160045260245ffd5b8260208301529392505050565b5f60208284031215610ff0575f5ffd5b505191905056fea164736f6c634300081b000a",
  "linkReferences": {},
  "deployedLinkReferences": {}
}